:020000040000FA
:0400000086EF11F086
:10060000003F065B4F666D7D077F6F777C395E79B3
:10061000715B30255D2D2D2D2D2D2D2D2D5B35253F
:100620005D00656D20696E7374616E7465732E2E46
:100630002E0050524553532E5B52455345545D0096
:100640004573746172612070726F6E746F006573B0
:10065000746172612070726F6E746F0042656D2DEF
:1006600076696E646F28612900566F6C746520731B
:10067000656D707265005061726120636F6D6563B6
:100680006172004372656D6F7369646164650052E5
:1006900061706964616D656E746500507265737335
:0D06A0002E20230041677561726465000023
:1006AE0021EE00F010EEB0F0360EDBCFE3FFE806E1
:1006BE00FCE2000E0001F16F100EF06F000EEF6FF6
:1006CE00000EEE6F20EE01F010EE80F02F0EDBCF5D
:1006DE00E3FFE806FCE212EC10F0B1EC11F0DAECFC
:1006EE0012F0BCEC12F0020E396E000EF5EC10F0AA
:1006FE005C0E396E060E3A6E06EC12F0000E396E76
:10070E00020EF5EC10F0760E396E060E3A6E06EC11
:10071E0012F0000E396E030EF5EC10F09B0E396ED2
:10072E00060E3A6E06EC12F0C0EF03F0A6EC0BF0DC
:10073E00D5EC12F00001F051311809E1F1513218E7
:10074E00D8B4ACEF03F0AEEF03F0C0EF03F0D5EC8E
:10075E0012F031C0F0F032C0F1F00001F1A1BAEFA9
:10076E0003F0BCEF03F0C0EF03F0000EEF6F010ECD
:10077E00EE6F0001EE51EF11D8B4C8EF03F0CAEFDF
:10078E0003F09DEF03F0000E3D6E000E3C6E000E6A
:10079E003F6E040E3E6E000E416E000E406E000E59
:1007AE00436E100E426E88EC10F0000E396E000E85
:1007BE00F5EC10F0B00E3C6E000E3D6E8EEC0FF0B0
:1007CE0072EF05F0A6EC0BF0D5EC12F00001F05133
:1007DE00311809E1F1513218D8B4F8EF03F0FAEFFD
:1007EE0003F072EF05F0D5EC12F031C0F0F032C02C
:1007FE00F1F00001F0A706EF04F008EF04F07CEF33
:10080E0004F0000EF26F000EF36F000EF46F000E88
:10081E00F56FF2C031F0F3C032F0F4C033F0F5C032
:10082E0034F0000E356E000E366E960E376E430E99
:10083E00386EC4EC0EF0D8A027EF04F029EF04F0C8
:10084E002BEF04F077EF04F0000E316E000E5AEC31
:10085E0011F0010E316E030E5AEC11F0020E316ED4
:10086E00050E5AEC11F0030E316E000E5AEC11F01B
:10087E0011EC0DF0050E2EEC12F0F2C031F0F3C0BB
:10088E0032F0F4C033F0F5C034F0000E356E000EC9
:10089E00366E800E376E3F0E386EF8EC06F031C0B5
:1008AE00F2F032C0F3F033C0F4F034C0F5F0F2C021
:1008BE0031F0F3C032F0F4C033F0F5C034F0000E76
:1008CE00356E000E366E960E376E430E386EC4ECD5
:1008DE000EF0D8A075EF04F077EF04F02BEF04F0D4
:1008EE00000E0001EF6F020EEE6FF0AF81EF04F01D
:1008FE0083EF04F0F7EF04F0000EF26F000EF36FCB
:10090E00000EF46F000EF56FF2C031F0F3C032F04E
:10091E00F4C033F0F5C034F0000E356E000E366EB6
:10092E00960E376E430E386EC4EC0EF0D8A0A2EFC2
:10093E0004F0A4EF04F0A6EF04F0F2EF04F0000EC2
:10094E00316E000E5AEC11F0010E316E040E5AEC9F
:10095E0011F0020E316E000E5AEC11F0030E316ED4
:10096E00000E5AEC11F011EC0DF0050E2EEC12F0FB
:10097E00F2C031F0F3C032F0F4C033F0F5C034F011
:10098E00000E356E000E366E800E376E3F0E386ED0
:10099E00F8EC06F031C0F2F032C0F3F033C0F4F0F0
:1009AE0034C0F5F0F2C031F0F3C032F0F4C033F0E1
:1009BE00F5C034F0000E356E000E366E960E376EA4
:1009CE00430E386EC4EC0EF0D8A0F0EF04F0F2EF48
:1009DE0004F0A6EF04F0000E0001EF6F020EEE6FB2
:1009EE00F1A7FCEF04F0FEEF04F072EF05F0000E3D
:1009FE00F26F000EF36F000EF46F000EF56FF2C083
:100A0E0031F0F3C032F0F4C033F0F5C034F0000E24
:100A1E00356E000E366E960E376E430E386EC4EC83
:100A2E000EF0D8A01DEF05F01FEF05F021EF05F039
:100A3E006DEF05F0000E316E000E5AEC11F0010E46
:100A4E00316E050E5AEC11F0020E316E000E5AEC9C
:100A5E0011F0030E316E000E5AEC11F011EC0DF088
:100A6E00050E2EEC12F0F2C031F0F3C032F0F4C0ED
:100A7E0033F0F5C034F0000E356E000E366E800E7B
:100A8E00376E3F0E386EF8EC06F031C0F2F032C021
:100A9E00F3F033C0F4F034C0F5F0F2C031F0F3C02F
:100AAE0032F0F4C033F0F5C034F0000E356E000EA7
:100ABE00366E960E376E430E386EC4EC0EF0D8A01E
:100ACE006BEF05F06DEF05F021EF05F0000E000164
:100ADE00EF6F020EEE6F0001EE05EF11D8B47AEF54
:100AEE0005F07CEF05F0E9EF03F0000E836E000ECB
:100AFE003D6E000E3C6E000E3F6E040E3E6E000EFE
:100B0E00416E000E406E000E436E100E426E88EC6B
:100B1E0010F0030E396E000EF5EC10F0830E396EE8
:100B2E00060E3A6E06EC12F0000E396E010EF5EC62
:100B3E0010F0110E396E060E3A6E06EC12F0000E23
:100B4E000001F66F630EF665AFEF05F0B1EF05F03D
:100B5E00B3EF05F0F0EF05F0000E46EC0FF031C0EC
:100B6E0038F032C039F0000E3B6E0A0E3A6E88EC49
:100B7E0012F038C03EF039C03FF0000E416ECC0E80
:100B8E00406E4EEC10F03E500001ED6FEDC045F0A2
:100B9E00466AE70E476E000E486E40EC0EF0060EEB
:100BAE00396E020EF5EC10F00001EA51DCEC11F09A
:100BBE002C0EDCEC11F00001EB51DCEC11F0250EEB
:100BCE00DCEC11F0FA0E2EEC12F00001F62BA9EF70
:100BDE0005F0000E3D6E000E3C6E000E3F6E040ED4
:100BEE003E6E000E416E000E406E000E436E100EF5
:100BFE00426E88EC10F0000E396E000EF5EC10F01F
:100C0E00A40E396E060E3A6E06EC12F0310E00018D
:100C1E00EA19D8A415EF06F017EF06F039EF06F033
:100C2E00000E396E020EF5EC10F08F0E396E060EB8
:100C3E003A6E06EC12F0000E396E030EF5EC10F063
:100C4E004E0E396E060E3A6E06EC12F0829A320E87
:100C5E00BFEC10F0FA0E2EEC12F0FA0E2EEC12F093
:100C6E0059EF06F0000E396E020EF5EC10F0400E44
:100C7E00396E060E3A6E06EC12F0000E396E030E49
:100C8E00F5EC10F0220E396E060E3A6E06EC12F0EE
:100C9E00829A500EBFEC10F0FA0E2EEC12F0FA0EF5
:100CAE002EEC12F09490000E0001F66F090EF66510
:100CBE0063EF06F065EF06F067EF06F072EF06F0F1
:100CCE008270FA0E2EEC12F0FA0E2EEC12F00001DB
:100CDE00F62B5DEF06F0010E836EEAC031F0010EC9
:100CEE0063EC0CF0000E3D6E000E3C6E000E3F6E7F
:100CFE00040E3E6E000E416E000E406E000E436EF0
:100D0E00100E426E88EC10F08290000E836E000E74
:100D1E00BFEC10F09690000E0001F66F090EF6650E
:100D2E009BEF06F09DEF06F09FEF06F0AAEF06F0A0
:100D3E008470FA0E2EEC12F0FA0E2EEC12F0000168
:100D4E00F62B95EF06F08490020E396E000EF5EC40
:100D5E0010F0690E396E060E3A6E06EC12F0400E69
:100D6E00D3EC0FF0000E0001F66F1F0EF665C2EF0A
:100D7E0006F0C4EF06F0C6EF06F0D3EF06F0800ED5
:100D8E00F625D96EDA6A000EDA22DF50DCEC11F0AD
:100D9E000001F62BBCEF06F0070E396E010EF5ECD6
:100DAE0010F0000EDCEC11F0010EDCEC11F0070E71
:100DBE00396E020EF5EC10F0020EDCEC11F0030EA3
:100DCE00DCEC11F0000E396E030EF5EC10F0320E65
:100DDE00396E060E3A6E06EC12F0F4EF06F000EFE6
:100DEE0000F03450800B3D6E345034243F6E33AEE1
:100DFE0003EF07F005EF07F006EF07F03F803F50D7
:100E0E00D8B40CEF07F00EEF07F023EF07F03F28F2
:100E1E00D8A414EF07F016EF07F01EEF07F0000E40
:100E2E00316E000E326E000E336E000E346E338E47
:100E3E00000E346E2BEF07F0000E316E000E326E88
:100E4E00000E336E000E346E3850800B3E6E3D50E9
:100E5E003E18D8B435EF07F037EF07F038EF07F04C
:100E6E003D8C385038243E6E37AE40EF07F042EFDF
:100E7E0007F043EF07F03E803E50D8B449EF07F03D
:100E8E004BEF07F060EF07F03E28D8A451EF07F0C4
:100E9E0053EF07F05BEF07F0000E356E000E366E67
:100EAE00000E376E000E386E378E000E386E68EFFD
:100EBE0007F0000E356E000E366E000E376E000E09
:100ECE00386E3F503E5CD8B06FEF07F071EF07F011
:100EDE0098EF07F03DAC76EF07F078EF07F07AEF7A
:100EEE0007F0800E3D1A3FC040F03EC03FF040C0BC
:100EFE003EF031C040F035C031F040C035F032C068
:100F0E0040F036C032F040C036F033C040F037C04B
:100F1E0033F040C037F034C040F038C034F040C039
:100F2E0038F0000E406E3F503EC039F03A6A395EDE
:100F3E00000E3A5A3ABEADEF07F03A5009E11A0EDA
:100F4E00395CD8A0ADEF07F0AFEF07F0E6EF07F092
:100F5E003150321033103410D8A4B8EF07F0BBEF75
:100F6E0007F0010EBCEF07F0000E406E000E316E62
:100F7E00000E326E000E336E000E346E3EC03FF029
:100F8E00EFEF07F040A0CEEF07F0D0EF07F0D6EF6F
:100F9E0007F0D89040300109406ED8EF07F0D89096
:100FAE00403231A0DDEF07F0DFEF07F0E0EF07F0A2
:100FBE00408E343434323332323231323F2A3E5064
:100FCE003F5CD8A0EDEF07F0EFEF07F0C9EF07F0A9
:100FDE003DBCF4EF07F0F6EF07F036EF08F03F50A8
:100FEE00D8A4FCEF07F0FEEF07F008EF08F0000EB4
:100FFE00316E000E326E000E336E000E346E57EFF1
:10100E0009F03550312636503222375033223850BF
:10101E00342234A015EF08F017EF08F0C3EF08F0F4
:10102E0040A01CEF08F01EEF08F024EF08F0D89057
:10103E0040300109406E26EF08F0D890403231A0C2
:10104E002BEF08F02DEF08F02EEF08F0408E343421
:10105E0034323332323231323F2AC3EF08F0355058
:10106E00315C36503258375033583450800A396E0E
:10107E003850800A3958D8B047EF08F049EF08F0D9
:10108E0074EF08F03150355C396E325036583A6E86
:10109E00335037583B6E345038583C6EFF0E39245F
:1010AE00316EFF0E3A20326EFF0E3B20336EFF0E76
:1010BE003C20346E800E3D1A406C4050D8A46AEF2E
:1010CE0008F06CEF08F07CEF08F0010E3126000EF0
:1010DE003222332234227CEF08F03550315E365006
:1010EE00325A3750335A3850345A31503210331036
:1010FE003410D8A485EF08F087EF08F0BCEF08F0A5
:10110E004050D8A48DEF08F08FEF08F0BCEF08F038
:10111E00000E316E000E326E000E336E000E346E07
:10112E0057EF09F0D890313632363336343640AE7A
:10113E00A3EF08F0A5EF08F0A6EF08F0318040A06D
:10114E00ABEF08F0ADEF08F0B1EF08F0D880403605
:10115E00B3EF08F0D89040363F50D8B4B9EF08F04E
:10116E00BBEF08F0BCEF08F03F0633AEC1EF08F05E
:10117E00C3EF08F099EF08F0000E3E6E40AECAEFD6
:10118E0008F0CCEF08F0E4EF08F040C039F07F0E25
:10119E003916D8B4D5EF08F0D7EF08F0DBEF08F02A
:1011AE00010E3E6EE4EF08F031A0E0EF08F0E2EF42
:1011BE0008F0E4EF08F0D7EF08F03E50D8B4EAEFAD
:1011CE0008F0ECEF08F017EF09F0010E3126000ED3
:1011DE0032223322342234A0F7EF08F0F9EF08F070
:1011EE0017EF09F031C039F032C03AF033C03BF09E
:1011FE0034C03CF03C343C323B323A32393239C0A6
:10120E0031F03AC032F03BC033F03CC034F03F28EE
:10121E00D8B414EF09F016EF09F017EF09F03F2AD2
:10122E003F28D8B41DEF09F01FEF09F027EF09F0A2
:10123E003F50D8A425EF09F027EF09F039EF09F058
:10124E00000E316E000E326E000E336E000E346ED6
:10125E003F50D8A435EF09F037EF09F039EF09F018
:10126E00000E3D6E3FA03EEF09F040EF09F043EF58
:10127E0009F0338E44EF09F0339ED8903F30346E30
:10128E003DAE4CEF09F04EEF09F04FEF09F0348E02
:10129E0031C031F032C032F033C033F034C034F0EC
:1012AE00120032BE66EF09F0325007E1080E315CD3
:1012BE00D8B064EF09F066EF09F090EF09F0335003
:1012CE003410D8B46DEF09F06FEF09F07FEF09F02D
:1012DE0031C035F0010E366E352A78EF09F0D89010
:1012EE003636352E76EF09F0365092127EEF0AF032
:1012FE0031C035F0010E366E352A88EF09F0D890E0
:10130E003636352E86EF09F03650FF0A92167EEFEE
:10131E000AF032BE9EEF09F0325007E1100E315C3A
:10132E00D8B09CEF09F09EEF09F0CCEF09F03350E6
:10133E003410D8B4A5EF09F0A7EF09F0B9EF09F012
:10134E0031C035F0F80E3526010E366E352AB2EF65
:10135E0009F0D8903636352EB0EF09F0365093128C
:10136E007EEF0AF031C035F0F80E3526010E366EDE
:10137E00352AC4EF09F0D8903636352EC2EF09F073
:10138E003650FF0A93167EEF0AF032BEDAEF09F0FE
:10139E00325007E1180E315CD8B0D8EF09F0DAEF11
:1013AE0009F008EF0AF033503410D8B4E1EF09F029
:1013BE00E3EF09F0F5EF09F031C035F0F00E352608
:1013CE00010E366E352AEEEF09F0D8903636352EF0
:1013DE00ECEF09F0365094127EEF0AF031C035F082
:1013EE00F00E3526010E366E352A00EF0AF0D89033
:1013FE003636352EFEEF09F03650FF0A94167EEF84
:10140E000AF032BE16EF0AF0325007E1200E315CC0
:10141E00D8B014EF0AF016EF0AF044EF0AF033508A
:10142E003410D8B41DEF0AF01FEF0AF031EF0AF0B6
:10143E0031C035F0E80E3526010E366E352A2AEF0C
:10144E000AF0D8903636352E28EF0AF0365095121F
:10145E007EEF0AF031C035F0E80E3526010E366EFD
:10146E00352A3CEF0AF0D8903636352E3AEF0AF090
:10147E003650FF0A95167EEF0AF032BE52EF0AF092
:10148E00325007E1280E315CD8B050EF0AF052EF1F
:10149E000AF07EEF0AF033503410D8B459EF0AF048
:1014AE005BEF0AF06DEF0AF031C035F0E00E352635
:1014BE00010E366E352A66EF0AF0D8903636352E86
:1014CE0064EF0AF0365096127EEF0AF031C035F016
:1014DE00E00E3526010E366E352A78EF0AF0D890DA
:1014EE003636352E76EF0AF03650FF0A9616120073
:1014FE0032BE8DEF0AF0325007E1080E315CD8B0E3
:10150E008BEF0AF08DEF0AF0B7EF0AF0335034107C
:10151E00D8B494EF0AF096EF0AF0A6EF0AF031C0B5
:10152E0035F0010E366E352A9FEF0AF0D89036361A
:10153E00352E9DEF0AF036508012A5EF0BF031C01C
:10154E0035F0010E366E352AAFEF0AF0D8903636EA
:10155E00352EADEF0AF03650FF0A8016A5EF0BF0D0
:10156E0032BEC5EF0AF0325007E1100E315CD8B032
:10157E00C3EF0AF0C5EF0AF0F3EF0AF0F80E3126CA
:10158E00FF0E322233503410D8B4D0EF0AF0D2EF1F
:10159E000AF0E2EF0AF031C035F0010E366E352A50
:1015AE00DBEF0AF0D8903636352ED9EF0AF03650EA
:1015BE008112A5EF0BF031C035F0010E366E352AD3
:1015CE00EBEF0AF0D8903636352EE9EF0AF03650AA
:1015DE00FF0A8116A5EF0BF032BE01EF0BF0325071
:1015EE0007E1180E315CD8B0FFEF0AF001EF0BF0F7
:1015FE002FEF0BF0F00E3126FF0E32223350341047
:10160E00D8B40CEF0BF00EEF0BF01EEF0BF031C059
:10161E0035F0010E366E352A17EF0BF0D8903636B0
:10162E00352E15EF0BF036508212A5EF0BF031C0B0
:10163E0035F0010E366E352A27EF0BF0D890363680
:10164E00352E25EF0BF03650FF0A8216A5EF0BF064
:10165E0032BE3DEF0BF0325007E1200E315CD8B0B8
:10166E003BEF0BF03DEF0BF06BEF0BF0E80E31267E
:10167E00FF0E322233503410D8B448EF0BF04AEF3D
:10168E000BF05AEF0BF031C035F0010E366E352AE5
:10169E0053EF0BF0D8903636352E51EF0BF0365007
:1016AE008312A5EF0BF031C035F0010E366E352AE0
:1016BE0063EF0BF0D8903636352E61EF0BF03650C7
:1016CE00FF0A8316A5EF0BF032BE79EF0BF0325006
:1016DE0007E1280E315CD8B077EF0BF079EF0BF005
:1016EE00A5EF0BF0E00E3126FF0E322233503410F0
:1016FE00D8B484EF0BF086EF0BF096EF0BF031C001
:10170E0035F0010E366E352A8FEF0BF0D890363647
:10171E00352E8DEF0BF036508412A5EF0BF031C045
:10172E0035F0010E366E352A9FEF0BF0D890363617
:10173E00352E9DEF0BF03650FF0A8416120083CF24
:10174E0036F00F0E9512000E3A6EF80E93163AC042
:10175E0031F0010E326E312AB7EF0BF0D8903236DF
:10176E00312EB5EF0BF032509312070E81123AC0A4
:10177E0031F0010E326E312AC7EF0BF0D8903236AF
:10178E00312EC5EF0BF03250FF0A8116000E386E67
:10179E00000E376E374A382A38BEDFEF0BF038505E
:1017AE0009E10A0E375CD8A0DFEF0BF0E1EF0BF08A
:1017BE00D1EF0BF0000E396E39C031F0010E326EE2
:1017CE00312AECEF0BF0D8903236312EEAEF0BF0D7
:1017DE00325083140009D8A4F7EF0BF0F9EF0BF099
:1017EE0011EF0CF03A50040DF3503924316E010E06
:1017FE00326E000E336E312A08EF0CF0D89032366E
:10180E003336312E05EF0CF032504C1233504D1250
:10181E002BEF0CF03A50040DF3503924316E010EBB
:10182E00326E000E336E312A20EF0CF0D890323625
:10183E003336312E1DEF0CF0321C346E331C356EE8
:10184E0034504C1635504D16392A030E396432EF8A
:10185E000CF034EF0CF0E3EF0BF03A2A020E3A6480
:10186E003BEF0CF03DEF0CF0ACEF0BF04C504A1888
:10187E0007E14D504B18D8A447EF0CF049EF0CF090
:10188E004CEF0CF0550652EF0CF00A0E556E4CC094
:10189E004AF04DC04BF05550D8A458EF0CF05AEF0B
:1018AE000CF05EEF0CF04AC04EF04BC04FF036C05D
:1018BE0083FF000E956E1200326E000E836E000EC8
:1018CE00346E3250832632503224326E000E336E16
:1018DE00310E3118D8A476EF0CF078EF0CF09BEFA8
:1018EE000CF0000E356E352A3528D8A481EF0CF099
:1018FE0083EF0CF07AEF0CF0000E356E352A35289A
:10190E00D8A48CEF0CF08EEF0CF085EF0CF0000EDF
:10191E00356E352A3528D8A497EF0CF099EF0CF0D8
:10192E0090EF0CF0FEEF0CF0000E356E352A3528D8
:10193E00D8A4A4EF0CF0A6EF0CF09DEF0CF0000E67
:10194E00356E352A3528D8A4AFEF0CF0B1EF0CF078
:10195E00A8EF0CF0000E356E352A3528D8A4BAEF54
:10196E000CF0BCEF0CF0B3EF0CF0000E356E352A18
:10197E003528D8A4C5EF0CF0C7EF0CF0BEEF0CF075
:10198E00000E356E352A3528D8A4D0EF0CF0D2EFE4
:10199E000CF0C9EF0CF0000E356E352A3528D8A4A0
:1019AE00DBEF0CF0DDEF0CF0D4EF0CF0000E356E2B
:1019BE00352A3528D8A4E6EF0CF0E8EF0CF0DFEF6F
:1019CE000CF0000E356E352A3528D8A4F1EF0CF048
:1019DE00F3EF0CF0EAEF0CF0000E356E352A3528D9
:1019EE00D8A4FCEF0CF0FEEF0CF0F5EF0CF0332A60
:1019FE003328D8A405EF0DF007EF0DF06FEF0CF0C4
:101A0E00342A070E34640EEF0DF010EF0DF068EF70
:101A1E000CF01200000E956E000E326E020E316E3C
:101A2E00000E346E000E336E7FEC0AF0000E326E36
:101A3E00030E316E000E346E000E336E7FEC0AF024
:101A4E00000E326E040E316E000E346E000E336ECA
:101A5E007FEC0AF0000E326E050E316E000E346E03
:101A6E00000E336E7FEC0AF0000E836E9CEF0DF0CD
:101A7E00010E5324F66EF76A060EF7220800F5CF14
:101A8E0083FF000E326E020E316E000E346E010EAA
:101A9E00336E7FEC0AF0010E546EB9EF0DF0010EAD
:101AAE005224F66EF76A060EF7220800F550800FE4
:101ABE00836E000E326E030E316E000E346E010E0A
:101ACE00336E7FEC0AF0020E546EB9EF0DF0010E7C
:101ADE005124F66EF76A060EF7220800F5CF83FF43
:101AEE00000E326E040E316E000E346E010E336E29
:101AFE007FEC0AF0030E546EB9EF0DF0010E502478
:101B0E00F66EF76A060EF7220800F5CF83FF000E79
:101B1E00326E050E316E000E346E010E336E7FEC9A
:101B2E000AF0000E546EB9EF0DF05450376E386A4D
:101B3E003850000AD8B4A6EF0DF098EF0DF03750DC
:101B4E00000AD8B43FEF0DF0010AD8B456EF0DF0ED
:101B5E00030AD8B46EEF0DF0010AD8B485EF0DF07C
:101B6E0098EF0DF01200000E3A6E38BEC3EF0DF076
:101B7E00C1EF0DF0CDEF0DF0381E371E361E356C51
:101B8E00000E362237223822010E3A6E34BED4EFC2
:101B9E000DF0D2EF0DF0DEEF0DF0341E331E321EBF
:101BAE00316C000E322233223422010E3A1A000E0C
:101BBE003B6E000E3C6E000E3D6E000E3E6E3550BE
:101BCE00361037103810D8B4EFEF0DF0F1EF0DF0EE
:101BDE0027EF0EF0010E396EFBEF0DF0D890353673
:101BEE00363637363836392A38AE00EF0EF002EF79
:101BFE000EF0F5EF0DF0D8903B363C363D363E36C6
:101C0E003550315C3650325837503358385034587E
:101C1E00D8A014EF0EF016EF0EF01FEF0EF03550A9
:101C2E00315E3650325A3750335A3850345A3B8020
:101C3E00D8903832373236323532392E02EF0EF036
:101C4E003A50D8B42DEF0EF02FEF0EF037EF0EF016
:101C5E003E1E3D1E3C1E3B6C000E3C223D223E2293
:101C6E003BC031F03CC032F03DC033F03EC034F0EA
:101C7E00120045C03EF046C03FF0270E416E100EDA
:101C8E00406E4EEC10F03E50300F47C0D9FF48C0AA
:101C9E00DAFFDF6E20EE01F04750D9264850DA22E7
:101CAE00270E346E100E336E45C031F046C032F042
:101CBE0028EC11F031C03EF032C03FF0030E416E01
:101CCE00E80E406E4EEC10F03E50300FDF6E20EE00
:101CDE0002F04750D9264850DA22030E346EE80E31
:101CEE00336E45C031F046C032F028EC11F031C0F1
:101CFE003EF032C03FF0000E416E640E406E4EEC70
:101D0E0010F03E50300FDF6E20EE03F04750D92614
:101D1E004850DA22000E346E640E336E45C031F038
:101D2E0046C032F028EC11F031C03EF032C03FF028
:101D3E00000E416E0A0E406E4EEC10F03E50300F0B
:101D4E00DF6E20EE04F04750D9264850DA2245C007
:101D5E0031F046C032F0000E346E0A0E336E28ECAF
:101D6E0011F03150300FDF6E20EE05F04750D926BE
:101D7E004850DA22000EDF6E1200000E3114396E5A
:101D8E00000E32143A6E800E33143B6E7F0E3414F6
:101D9E003C6E39503A103B103C10D8A4D9EF0EF0DF
:101DAE00DBEF0EF0E3EF0EF0000E316E000E326E32
:101DBE00000E336E000E346E000E3514396E000EAA
:101DCE0036143A6E800E37143B6E7F0E38143C6E0E
:101DDE0039503A103B103C10D8A4F8EF0EF0FAEF41
:101DEE000EF002EF0FF0000E356E000E366E000E86
:101DFE00376E000E386E34AE07EF0FF009EF0FF0AE
:101E0E0012EF0FF0316C321ED8B0322A331ED8B01A
:101E1E00332A800E345638AE17EF0FF019EF0FF04D
:101E2E0022EF0FF0356C361ED8B0362A371ED8B0DA
:101E3E00372A800E3856000E311A000E321A000E56
:101E4E00331A800E341A000E351A000E361A000E92
:101E5E00371A800E381A3550315C3650325837509A
:101E6E00335838503458D8B03FEF0FF041EF0FF0E1
:101E7E0044EF0FF0D89045EF0FF0D8801200376E78
:101E8E0055EF0FF0010EC26E6EEF0FF0090EC26E1F
:101E9E006EEF0FF0110EC26E6EEF0FF03750336E05
:101EAE00346A3450000AD8B45FEF0FF06EEF0FF0C3
:101EBE003350000AD8B449EF0FF0010AD8B44DEFF1
:101ECE000FF0030AD8B451EF0FF06EEF0FF0C2828D
:101EDE00C2B274EF0FF076EF0FF06FEF0FF0C3CFCB
:101EEE0033F0060E346ED8903332342E7AEF0FF074
:101EFE003350C4CF35F0366AD89035363636D89052
:101F0E00353636363510316E3650326E1200000EC2
:101F1E00426E000E416E000E436E43503C24D96E4D
:101F2E00000E3D20DA6E5C0EDE18D8A4A1EF0FF085
:101F3E00A3EF0FF0C0EF0FF043503C243E6E000EA7
:101F4E003D203F6E010E3E24D96E000E3F20DA6E0C
:101F5E006E0EDE18D8A4B6EF0FF0B8EF0FF0C0EF8C
:101F6E000FF0422A41C039F04250F5EC10F0020E4B
:101F7E00432643503C24D96E000E3D20DA6EDF50CE
:101F8E00DCEC11F0432A360E4364D0EF0FF0D2EFA3
:101F9E000FF094EF0FF01200386E83CF37F0000E73
:101FAE00956E000E326E220E316E000E346E000EE5
:101FBE00336E7FEC0AF038C083FF000E326E210EB6
:101FCE00316E000E346E010E336E7FEC0AF0000E91
:101FDE00326E210E316E000E346E000E336E7FECBB
:101FEE000AF037C083FF020E3818D8B401EF10F094
:101FFE0003EF10F00BEF10F03804D8A409EF10F037
:10200E000BEF10F00FEF10F0AEEC12F011EF10F02E
:10201E00C9EC12F01200000E326E220E316E000E5E
:10202E00346E000E336E58EC09F0000E326E210E37
:10203E00316E000E346E000E336E58EC09F0000E49
:10204E00956EAEEC12F0AEEC12F0AEEC12F0AEEC11
:10205E0012F0AEEC12F0380ED3EC0FF0AEEC12F034
:10206E00AEEC12F0380ED3EC0FF0AEEC12F0380EE0
:10207E00D3EC0FF0380ED3EC0FF0060ED3EC0FF0BE
:10208E000C0ED3EC0FF0010ED3EC0FF01200000E7D
:10209E00436E000E426E40504110D8B459EF10F00E
:1020AE005BEF10F083EF10F0010E446E63EF10F053
:1020BE00D89040364136442A41AE68EF10F06AEFB0
:1020CE0010F05FEF10F0D8904236433640503E5C31
:1020DE0041503F58D8A076EF10F078EF10F07DEF1A
:1020EE0010F040503E5E41503F5A4280D8904132EF
:1020FE004032442E6AEF10F042C03EF043C03FF033
:10210E0012003CC047F0ACEF10F040C048F099EF21
:10211E0010F048C039F04750F5EC10F0010EDCEC31
:10212E0011F0482A4850446E456A4250445C45506E
:10213E00800A466E4350800A4658D8A0A9EF10F088
:10214E00ABEF10F090EF10F0472A4750446E456AFF
:10215E003E50445C4550800A466E3F50800A4658B9
:10216E00D8A0BCEF10F0BEEF10F08CEF10F0120004
:10217E00476E010ECB24386E396A000E392247C0E5
:10218E003AF03B6A88EC12F038C048F039C049F09A
:10219E0048C03EF049C03FF0000E416E190E406E31
:1021AE004EEC10F03EC048F03FC049F0FF0E48160E
:1021BE00030E491648C045F049C046F0D890463245
:1021CE004532D890463245324550BE6E48C045F035
:1021DE00030E45164538F00BBD1212003B6E3B50F8
:1021EE00D8A4FCEF10F0FEEF10F001EF11F0395013
:1021FE00800F3A6E3B04D8A407EF11F009EF11F0EF
:10220E000CEF11F03950C00F3A6E020E3B18D8A4E5
:10221E0013EF11F015EF11F018EF11F03950900F78
:10222E003A6E030E3B18D8A41FEF11F021EF11F0F8
:10223E0024EF11F03950D00F3A6E3A50D3EC0FF024
:10224E00120033503410D8B42FEF11F031EF11F0DB
:10225E0055EF11F0010E356E39EF11F0D89033367F
:10226E003436352A34AE3EEF11F040EF11F035EF33
:10227E0011F03350315C34503258D8A049EF11F080
:10228E004BEF11F04FEF11F03350315E3450325AA4
:10229E00D89034323332352E40EF11F031C031F058
:1022AE0032C032F01200326E3150D8A461EF11F00C
:1022BE0063EF11F065EF11F032C053F03104D8A482
:1022CE006BEF11F06DEF11F06FEF11F032C052F0B5
:1022DE00020E3118D8A476EF11F078EF11F07AEFE4
:1022EE0011F032C051F0030E3118D8A481EF11F065
:1022FE0083EF11F085EF11F032C050F01200A80EEE
:10230E00F66E240EF76E000EF86E01EE00F010EE73
:10231E0037F00900F5CFEEFFE550E150FAE1DF0EA0
:10232E00F66E240EF76E000EF86E00EE01F010EE53
:10233E0030F00900F5CFEEFFE550E150FAE100EE86
:10234E004AF00C0EEE6AE806FDE1000EF86E000192
:10235E0057EF03F0000E326E020E316E000E346E29
:10236E00000E336E58EC09F0000E326E030E316E15
:10237E00000E346E000E336E58EC09F0000E326E05
:10238E00040E316E000E346E000E336E58EC09F0F2
:10239E00000E326E050E316E000E346E000E336E70
:1023AE0058EC09F0000E956E1200376E83CF38F0A0
:1023BE00000E956E000E326E220E316E000E346ED1
:1023CE00010E336E7FEC0AF037C083FF000E326EC3
:1023DE00210E316E000E346E010E336E7FEC0AF05C
:1023EE00000E326E210E316E000E346E000E336E04
:1023FE007FEC0AF038C083FFC9EC12F01200000E19
:10240E003D6E19EF12F03D5039243B6E000E3A200E
:10241E003C6E3BC0F6FF3CC0F7FF0800F550DCEC0D
:10242E0011F03D2A3D5039243B6E000E3A203C6E91
:10243E003BC0F6FF3CC0F7FF0800F5500009D8A4DA
:10244E002BEF12F02DEF12F00AEF12F01200316E98
:10245E00000E326E4AEF12F0000E336E000E346E26
:10246E00342A020E34643EEF12F040EF12F037EFD2
:10247E0012F0332A280E336447EF12F049EF12F0B0
:10248E0035EF12F0322A3150325CD8A051EF12F0F3
:10249E0053EF12F033EF12F012004573636F6C6856
:1024AE0061206F207361626F723A5C6E312D4261F2
:1024BE00756E696C68615C6E322D43686F636F6C0C
:1024CE006174655C6E332D4D69737461000000009C
:1024DE00000F0809080A0B080F1E020A020A1A0248
:1024EE001E1F0F0703010000001F1E1C1810000006
:1024FE0000000000000000000000000000000000CE
:01250E0000CC
:1025100038503A02F3CF3CF0F4CF3DF038503B0254
:10252000F3503D2639503A02F3503D263CC038F076
:102530003DC039F01200480E316EE80E326E010EC9
:10254000336E000E346E3FC035F040C036F0376A4F
:10255000386ABAEC0DF03104CB6E1200000E326E08
:10256000C9EC12F0322A310E3264B9EF12F0BBEF2F
:1025700012F0B0EF12F012009494030ECA12CA8443
:102580000C0EBD6E000E406E640E3F6E9BEC12F0A2
:102590001200000E316E312A180E3164D2EF12F0A3
:1025A000D4EF12F0CBEF12F012004EC031F04FC05A
:0E25B00032F01200070E93160F0E9512120055
:020000040020DA
:08000000FFFFFFFFFFFFFFFF00
:020000040030CA
:0E000000FF027100FF8380FF0FC00FE00F4072
:00000001FF
